:020000040800F2
:1000000000080020D9000008BD2300081B1F0008BD
:1000100000000000000000000000000000000000E0
:10002000000000000000000000000000452500085E
:1000300000000000000000003924000847250008E7
:10004000EB000008EB000008EB000008EB000008E4
:10005000EB000008EB000008EB000008EB000008D4
:1000600000000000EB000008EB000008EB000008B7
:10007000EB000008EB000008EB000008EB000008B4
:10008000EB000008EB000008EB0000080000000097
:10009000EB000008EB000008EB000008EB00000894
:1000A000EB000008EB000008EB000008552D0008ED
:1000B000652D0008EB0000080000000000000000B3
:1000C0000448854600F0C0F900480047E5350008BF
:1000D000C046C04600080020044880470448004746
:1000E000FEE7FEE7FEE7FEE7FEE7FEE7ED25000898
:1000F000C100000830B50B46014600202022012433
:1001000009E00D46D5409D4205D31D469540491B4B
:100110002546954040191546521E002DF1DC30BD94
:10012000F0B51FB40646002082B005464024019178
:1001300000901BE0019922460F46304600F031F94D
:10014000049A059B801A994110D3104619462246FD
:1001500000F017F9361A8F4101972246012000213D
:10016000009F00F00EF938184D4100902046641EA3
:100170000028DFDC019B00982946324607B0F0BD1D
:10018000D2B201E00270401C491EFBD2704700222F
:10019000F6E710B513460A4604461946FFF7F0FF86
:1001A000204610BDF8B502464A40D40F42004B002D
:1001B00052085B089A4202D20246084611464A009B
:1001C00023D0C30D4A00DDB2120EAD1A202D35DA50
:1001D00049020126490AF6058A19002C00D052422C
:1001E00020214F1B1146B9402A411018C20D9A42D6
:1001F00021D0002C17D0012D08DCDA05801AD20F8F
:100200008019D207DBB200F0E5F8F8BDDA05801AF4
:10021000012340001B06C01880185A428018CA0FDC
:100220001043490007E04908C2071143DA05801A64
:1002300080194008801800F0C5F8F8BD610001225F
:10024000511A001BF7E70122D2075140AAE7012209
:10025000D2075040A6E7024670B54A40D30FDB07ED
:1002600040002DD04A002AD0010E140E00021202C6
:100270000919400A520A8418E50104465443000A49
:10028000120A2E045043A4194219200CC543AA187F
:10029000120C0125AD03521C521912047F3924049B
:1002A00000D0521C104301D44000491EC2B20C06BB
:1002B000C0092018401C4008802A02D003E000201A
:1002C00070BD40084000002900DA0020184370BDCE
:1002D00070B502464A40D50F40004A00ED0740087D
:1002E0005208002814D0002A12D0C40DD30D4102A8
:1002F0000120C0055202490A520AE41A09181218CC
:100300007D34914201D3641C00E04900002C01DAE5
:10031000002070BD0023914201D3891A0343400895
:1003200049000028F7D100290AD0914202D10121C9
:10033000C90705E0914201D2012101E00121C94331
:10034000E005C018401900F03DF870BD10B500225E
:100350009623114600F03EF810BD410040020122F4
:10036000400AD205090E80187F2901DA0020704763
:10037000962903DC9622511AC84070479639884066
:10038000704710B5202A04DB0146203A9140002036
:1003900010BD914020239C1A0346E340194390402E
:1003A00010BD10B5202A04DB0846203AD0400021B9
:1003B00010BD0B46D340D0402024A21A91400843E0
:1003C000194610BD002904DA401C490001D140083B
:1003D0004000704770B40024050C05D110240004BF
:1003E00002D1002921D01124050E01D100020834C8
:1003F000050F01D10001241D850F01D18000A41C2F
:10040000002801DB4000641C002908D020252E1B99
:100410000D46F540A14000D00121294308430106C3
:100420001B1B000ADB1D02D5002070BC7047DB05DA
:10043000181880180029F8DA401C4900F5D170BC62
:100440004008400070470000064C0125064E05E0BC
:10045000E36807CC2B430C3C98471034B442F7D3E5
:10046000FFF732FEE43D0008043E000870B5024686
:100470000B4600240021184600BF14E0555C68407C
:1004800000240CE080250540002D04D045003126D5
:100490007540E8B201E04506280E651CECB2082C58
:1004A000F0DB4D1CE9B20229E8DB70BD72B600BF7B
:1004B000FEE770B5044600252520005D022803D024
:1004C0000420E063012520E0206800680E218843B5
:1004D00021680860206800684008400021680860C2
:1004E0001C21606C084001218140206C4160012189
:1004F0002520015500BF00212420015500BFA06B1D
:10050000002802D02046A16B8847284670BD000015
:1005100070B5044600F01EF906462546681C002802
:1005200002D0054800782D1800BF00F013F9801B99
:10053000A842FAD370BD00002400002070B5034625
:10054000002200240020DFE0012696400D6835409F
:100550002C46002C77D04D68012D08D04D68022D17
:1005600005D04D68112D02D04D68122D18D1986814
:1005700056000325B5400646AE4330465600CD68CA
:10058000B540284398605868012595400646AE431B
:10059000304610264D6835402D0995402843586057
:1005A000D86856000325B5400646AE43304656008F
:1005B0008D68B5402843D8604D68022D02D04D6843
:1005C000122D15D1D508AE001D462035A859550766
:1005D000EE0E0F25B5400646AE4330465607F60EE2
:1005E0000D69B5402843D508AD001E462036705130
:1005F000186856000325B5400646AE4330460D79CF
:10060000AD07AD0F5600B5402843186001263607E8
:100610004D683540B54276D13E4D6D6B0126354370
:100620003C4E75633C4D9608B600A85995072E0FB1
:100630000F25B5400646AE43304605252D07AB4293
:1006400002D100251AE05EE0344DAB4201D1012514
:1006500014E0334DAB4201D102250FE0314DAB42E6
:1006600001D103250AE0304DAB4201D1042505E05C
:100670002E4DAB4201D1052500E006259607360F29
:10068000B5402843244D9608B600A851284D286847
:100690000546A5432846012636044D683540B54237
:1006A00002D1054625432846214D28606868054645
:1006B000A5432846012676044D683540B54202D14F
:1006C0000546254328461A4D6860A8680546A54397
:1006D0002846012636054D683540B54202D105460B
:1006E00025432846124DA860E8680546A5432846DC
:1006F000012676054D683540B54202D105462543B1
:1007000028460B4DE860521C0D68D540002D00D0E6
:100710001AE770BD001002400800014000040050BC
:1007200000080050000C005000100050001C005049
:100730000004014010B5426913460B401B040C46EF
:1007400094432343836110BD002A01D0816100E0FE
:100750008162704701480068704700001C0000205B
:1007600002464120805C20282FD100BF4020805CC1
:10077000012801D10220704701234020835400BF8B
:100780002423412083541068006840084000136807
:1007900018601068006801231B03984313681860F1
:1007A0001068006808431368186010680068012327
:1007B00018431368186020234120835400BF00238E
:1007C0004020835400BF0020D5E70220D3E710B5B6
:1007D00002460B464120805C20282ED100BF4020DD
:1007E000805C012801D1022010BD012440208454E6
:1007F00000BF242441208454106800684008400051
:1008000014682060106801680F2424020846A04381
:100810000146180201431068016010680068012455
:1008200020431468206020244120845400BF002409
:100830004020845400BF0020D6E70220D4E7000007
:1008400010B50446002C01D1012010BD4120005DEF
:10085000002805D1002140200155204600F0C6F9AE
:10086000242141200155206800684008400021688B
:1008700008600F21090660688843216808612068C4
:1008800080680121C903884321688860E0680128E5
:1008900006D10121C903A06808432168886005E0EA
:1008A00021218902A068084321688860E068022845
:1008B00002D18002216848602068406814490843DA
:1008C000216848602068C0680121C9038843216805
:1008D000C860616920690843A16909020843216869
:1008E000C860216AE06908432168086020680068E0
:1008F0000121084321680860002060642021412014
:1009000001550020206300214220015500209CE772
:1009100000800002FFB581B0044616461F46412004
:10092000005D202877D100BF4020005D012802D162
:10093000022005B0F0BD01214020015500BFFFF7A6
:1009400009FF054619230122D1032046009501F035
:100950006BFB002801D00120EBE72221412001554B
:100960001021422001550020606466626785606343
:10097000608DFF280BD9FF2020853F480090208DF7
:10098000C2B20B052046029901F032FB0BE0608DEC
:10099000208539480090208DC2B201235B06204695
:1009A000029901F025FB43E02A4620460A9901F00E
:1009B00067FB002801D00120BBE72068406A616A1C
:1009C0000870606A401C6062208D401E2085608D2A
:1009D000401E6085608D00282AD0208D002827D1F8
:1009E00000950022802120460A9B01F01DFB002873
:1009F00001D001209DE7608DFF280DD9FF202085C3
:100A000000200090208DC2B201231B0620460299CF
:100A100001F0EEFA0CE02CE0608D208500200090C3
:100A2000208DC2B201235B062046029901F0E0FA54
:100A3000608D0028B8D12A4620460A9901F078FB3B
:100A4000002801D0012074E720202168C8612068B7
:100A500040680A490840216848602021412001552A
:100A600000214220015500BF4020015500BF002059
:100A70005FE702205DE700000024008000E800FE40
:100A8000FFB581B0044616461F464120005D202870
:100A900077D100BF4020005D012802D1022005B0BF
:100AA000F0BD01214020015500BFFFF753FE054670
:100AB00019230122D1032046009501F0B5FA002840
:100AC00001D00120EBE721214120015510214220D6
:100AD000015500206064666267856063608DFF2851
:100AE0000BD9FF2020853F480090208DC2B20B0516
:100AF0002046029901F07CFA0BE0608D2085394890
:100B00000090208DC2B201235B062046029901F0BD
:100B10006FFA43E02A4620460A9901F036FB002886
:100B200001D00120BBE7606A007821688862606AB2
:100B3000401C6062608D401E6085208D401E2085B7
:100B4000608D00282AD0208D002827D10095002212
:100B5000802120460A9B01F067FA002801D001207D
:100B60009DE7608DFF280DD9FF2020850020009093
:100B7000208DC2B201231B062046029901F038FAEB
:100B80000CE02CE0608D208500200090208DC2B20A
:100B900001235B062046029901F02AFA608D0028A5
:100BA000B8D12A4620460A9901F0C2FA002801D09D
:100BB000012074E720202168C861206840680A4944
:100BC0000840216848602021412001550021422031
:100BD000015500BF4020015500BF00205FE7022003
:100BE0005DE700000020008000E800FE10B586B040
:100BF0000446142101A8FFF7CAFA15492068884263
:100C000023D100BF1348C06A022108431149C862BA
:100C10000846C06A02210840009000BF00BF0320C0
:100C20000002019012200290012003900320049002
:100C30000420059001A90848FFF780FC0548806B57
:100C40000121490508430349886306B010BD00002F
:100C500000540040001002400004005003480068A7
:100C60000349097840180149086070471C000020BA
:100C70002400002010B500240848006840210843E3
:100C800006490860002000F00BF8002801D001247C
:100C900001E000F02FF8204610BD000000200240C7
:100CA00070B50446104801787D20C000FFF722FA95
:100CB000064631460D480068FFF71CFA054600F06D
:100CC0001BFE002801D0012070BD042C07D2002299
:100CD0002146501E00F02AF80548046001E001207A
:100CE000F2E70020F0E700002400002028000020A8
:100CF000200000200648406B012108430449486356
:100D00000846806B09040843014988637047000066
:100D10000010024000BFC206D20E01219140024ADB
:100D2000116000BF7047000000E100E070B50446AC
:100D30000D4616462946204601F042FB70BD0000D4
:100D4000F8B5044620212068084020287CD120687E
:100D50000840202800D100BF00278948806B01216E
:100D600009070840002805D18548806B084384495D
:100D70008863012783480068FF210131084000286B
:100D800016D18048006808437E490860FFF7E2FCFE
:100D9000064606E0FFF7DEFC801B642801D903202D
:100DA000F8BD78480068FF21013108400028F1D0E3
:100DB00073480568032109050D4060680840A84292
:100DC0000DD0091160680840884208D16C4800685D
:100DD000012149040840884201D10120E0E7684828
:100DE000403000690321090408400546002D3DD02C
:100DF00060680840A84239D0202120680840202897
:100E000034D15F4840300069032109048843054616
:100E10005B48403000690121C9040843584940310A
:100E20000861084600690121C904884354494031DA
:100E3000086108460561801528408915884215D14A
:100E4000FFF788FC064608E039E0FFF783FC801BCB
:100E50004D49884201D90320A2E749484030006942
:100E6000012149020840400A0028EED000BF00BF1F
:100E7000032109046068084088420AD1404800689C
:100E800009018843032212056168114008433C4967
:100E9000086000BF3A4840300069032212046168CC
:100EA0001140084336494031086100BF012F05D188
:100EB0003348806B890588433149886300BF2078B7
:100EC000C007C00F002809D02D484030C0688008F6
:100ED0008000A16808432A494031C8600221206887
:100EE0000840022809D126484030C0680C218843B8
:100EF000E168084322494031C86004212068084065
:100F000004280AD11E484030C06803218902884362
:100F1000216908431A494031C86008212068084007
:100F200008280AD116484030C068032109038843C5
:100F30006169084312494031C860FF2101312068CE
:100F4000084088420AD10E484030C0680321090495
:100F50008843A16908430A494031C860802120685C
:100F6000084080280AD106484030C068032189041F
:100F70008843E169084302494031C86000200FE717
:100F8000001002400070004088130000F8B50446CD
:100F90000D46002C01D10120F8BD79480068C0073A
:100FA000C00FA8420ED2764800684008400028438F
:100FB0007349086008460068C007C00FA84201D006
:100FC0000120E9E7022120680840022807D16D4886
:100FD000C068F0218843A16808436A49C860207846
:100FE000C007C00F00284CD06068022809D16548AE
:100FF0000068012149040840400C002824D1012048
:10100000CAE76068032809D15E48006801214906E3
:101010000840400E002817D10120BDE76068012874
:1010200008D15848006804210840800800280BD1E6
:101030000120B1E753480068012149020840400AF5
:10104000002801D10120A7E74E48C0688008800031
:10105000616808434B49C860FFF77CFB064660683F
:1010600002280FD107E0FFF775FB801B4649884235
:1010700001D9032090E74348C0680C2108400828A4
:10108000F1D134E0606803280FD107E0FFF762FB7D
:10109000801B3D49884201D903207DE73948C0685B
:1010A0000C2108400C28F1D121E0606801280FD103
:1010B00007E0FFF74FFB801B3349884201D903202B
:1010C0006AE73048C0680C2108400428F1D10EE0DE
:1010D00007E0FFF73FFB801B2B49884201D9032023
:1010E0005AE72848C0680C2108400028F1D124485C
:1010F0000068C007C00FA8420ED921480068400808
:10110000400028431E49086008460068C007C00F19
:10111000A84201D001203FE70421206808400428AC
:1011200008D11848C068072109028843E1680843CC
:101130001449C860082120680840082809D11148CE
:10114000C0680721C90288432169C90008430D49C5
:10115000C86000F049F80B49C968F022114009093C
:101160000A4A515CC8400A4908600020FFF798FD10
:101170000746002F01D038460EE700200CE700009C
:10118000002002400010024088130000883D000843
:101190002800002001480068704700002800002057
:1011A00000B5FFF7F7FF0549C96807221202114091
:1011B000090A034A515CC84000BD0000001002400B
:1011C000983D000800B5FFF7E5FF0549C96807220B
:1011D000D2021140C90A034A515CC84000BD000058
:1011E00000100240983D0008FEB52E48C7680C204C
:1011F0003840002845D0042804D008280CD00C28FA
:101200003ED10BE02748006810210840002801D09B
:10121000254C00E0254C41E0254C3FE00F208004A8
:101220003840800C23490E5C032080053840800D37
:10123000401C01901B48C068012109040840002897
:1012400007D01B49714308460199FEF753FF054635
:1012500014E01448006810210840002807D0124903
:10126000714308460199FEF745FF054606E00F4920
:10127000714308460199FEF73DFF05462C460DE0F7
:1012800000BF08484068072149030840400B009010
:101290000098401C01218140CC0300BF00BF2046C4
:1012A000FEBD00000010024000093D000024F400D3
:1012B000001BB700A03D0008FEB50446002C01D17C
:1012C0000120FEBDFA48C7680C210F40C06801210B
:1012D0000904084001902078C007C00F002872D090
:1012E000082F04D00C2F0FD1019888420CD1F04860
:1012F0000068012149040840400C002863D0606860
:10130000002860D10120DCE700BF012109046068EA
:10131000884205D1E64800680843E549086027E0AF
:1013200005210904606888420ED1E1480068012166
:1013300089040843DE490860084600680121090461
:101340000843DB49086013E0D9480068012109041B
:101350008843D7490860084600680121090408400D
:10136000009000BFD248006889008843D0490860D7
:1013700000BF6068002813D0FFF7ECF9054606E0CF
:10138000FFF7E8F9401B642801D9032099E7C84812
:101390000068012149040840400C0028F0D012E008
:1013A000FFF7D8F9054606E0FFF7D4F9401B64289B
:1013B00001D9032085E7BE4800680121490408409F
:1013C000400C0028F0D102212068084002286BD18F
:1013D000E66820203040002809D0B5480068202168
:1013E0000843B34908602021304688430646042F4D
:1013F00004D00C2F33D10198002830D1AC480068BC
:10140000042108408008002803D0002E01D10120CB
:1014100057E7A74840681F2109028843216909024C
:101420000843A349486008460068092188433043BF
:101430009F490860FFF7D8FE9D49C968F022114016
:1014400009099C4A515CC8409B4908600020FFF78D
:1014500027FC0290029800283FD0029831E7002E26
:1014600023D093480068092188433043904908609D
:10147000FFF770F9054606E0FFF76CF9401B0228FC
:1014800001D903201DE78A4800680421084080082C
:101490000028F1D0864840681F210902884321694D
:1014A000090208438249486017E081480068400803
:1014B00040007F490860FFF74DF9054606E0FFF759
:1014C00049F9401B022801D90320FAE67848006850
:1014D0000421084080080028F1D11021206808402C
:1014E000102867D1002F36D17148006849010840A3
:1014F000400A002804D0A069002801D10120E0E6BC
:101500006B484068072149038843216A08436849BA
:101510004860084640680002000A217F0906084327
:1015200063494860206A400B401C01218140C80388
:101530005F49C968F022114009095E4A515CC84000
:101540005D4908600020FFF7ABFB0290029800287D
:101550004BD00298B5E6A06900282CD0544800680A
:10156000FF210131084352490860FFF7F3F80546AF
:1015700006E0FFF7EFF8401B022801D90320A0E6A0
:101580004B480068012149020840400A0028F0D079
:1015900047484068072149038843216A0843444972
:1015A0004860084640680002000A217F0906084397
:1015B0003F49486019E03E480068FF2101318843F7
:1015C0003B490860FFF7C6F8054606E0FFF7C2F89A
:1015D000401B022801D9032073E635480068012129
:1015E00049020840400A0028F0D10821206808403C
:1015F000082839D1606900281BD02D484030006987
:10160000012108432A4940310861FFF7A3F8054644
:1016100006E0FFF79FF8401B022801D9032050E69F
:101620002348403000690221084040080028F0D0DB
:101630001AE01F4840300069400840001C49403112
:101640000861FFF787F8054606E0FFF783F8401BBF
:10165000022801D9032034E61548403000690221F0
:10166000084040080028F0D10421206808400428E0
:1016700079D1002000900E48806B89060840002830
:1016800006D10B48806B084309498863012000900C
:101690000A480068FF210131084000281ED1074890
:1016A0000068084305490860FFF754F805460EE056
:1016B00000100240883D0008280000200070004013
:1016C000FFF748F8401B642801D90320F9E5874853
:1016D0000068FF21013108400028F1D000BFFF2140
:1016E0000131A068884205D18148006908438049DA
:1016F000086130E0A06800280DD17D480069FF2115
:10170000013188437A490861084600690915884310
:10171000774908611FE005210902A06888420DD1C0
:10172000734800690121890208437149086108462C
:101730000069891508436E4908610CE06C4800692E
:10174000FF21013188436A4908610846006909158B
:1017500088436749086100BFA068002815D0FEF7DC
:10176000F9FF054608E031E0FEF7F4FF401B614950
:10177000884201D90320A4E55D480069012149029E
:101780000840400A0028EFD013E0FEF7E3FF0546CB
:1017900007E0FEF7DFFF401B5649884201D90320CE
:1017A0008FE553480069012149020840400A00289A
:1017B000EFD10098012808D14D484038806B0121B5
:1017C000090788434A494039886300BF606A002896
:1017D0004CD00C2F69D0606A022848D14448403868
:1017E0000068012109068843414940390860FEF735
:1017F000B1FF054606E0FEF7ADFF401B022801D908
:1018000003205EE53A484038006801214906084057
:10181000400E0028EFD1E16AA06A0843216B08431B
:1018200033494039C968FD221204914308433049C5
:101830004039C860084600680121090608432C4960
:1018400040390860FEF786FF054606E0FEF782FF96
:10185000401B022801D9032033E5254840380068A1
:10186000012149060840400E0028EFD03CE0204806
:10187000403800680121090688431D494039086045
:10188000FEF768FF054606E0FEF764FF401B0228EE
:1018900001D9032015E516484038006801214906A2
:1018A0000840400E0028EFD11EE0606A012800D1F8
:1018B00007E50F484038C0680190012109040198EC
:1018C0000840A16A88420DD10F218904019808407F
:1018D000E16A884206D10321890501980840216BFD
:1018E000884201D00120ECE40020EAE400700040CE
:1018F000401002408813000070B504462546681E5B
:101900000949884201D901200CE0681E0749486155
:101910000321081F00F054FD0020044988610720BE
:101920000861002070BD0000FFFFFF0000E000E044
:1019300070477047FEB504462068C5692068066890
:10194000206887682807000F0190019800280ED1B1
:101950002020284000280AD020203040002806D02F
:10196000206E002802D02046216E8847FEBD0198D7
:1019700000287DD0F807C00F002804D1FF202130B7
:1019800030400028F5D0E807C00F00280BD0FF201A
:1019900001303040002806D0012021680862E06F45
:1019A00001210843E0670220284000280AD0F807F8
:1019B000C00F002806D0022021680862E06F0421D1
:1019C0000843E0670420284000280AD0F807C00F29
:1019D000002806D0042021680862E06F0221084335
:1019E000E0670820284000280ED020203040002842
:1019F00003D1F807C00F002806D00820216808622C
:101A0000E06F08210843E067E06F002846D02020FF
:101A10002840002809D020203040002805D0206E22
:101A2000002802D02046216E8847E06F0090206891
:101A3000806840210840402804D0082100980840D0
:101A4000002826D0204600F0C1FE20688068402192
:101A50000840402819D12068806888432168886040
:101A6000E06E00280DD02548E16E8863E06E00E04E
:101A700015E0FEF71EFD002810D0E06E816B884750
:101A80000CE02046FFF755FF08E02046FFF751FF26
:101A900004E02046FFF74DFF0020E06766E70120E5
:101AA0000005284000280CD001208005384000287F
:101AB00007D001200005216808622046FFF738FFA3
:101AC00054E78020284000280AD080203040002899
:101AD00006D0606E002802D02046616E884745E738
:101AE00040202840002807D040203040002803D064
:101AF000204600F07DFE39E700BF37E7B527000834
:101B000010B50446002C01D1012010BDA0690028A9
:101B100000D000E000BF606F002805D100217020D8
:101B20000155204600F02CF82420606720680068EA
:101B30004008400021680860204600F0D5FE0128DA
:101B400000D1E2E7606A002802D0204600F082FD62
:101B5000206840680921C9028843216848602068DC
:101B600080682A21884321688860206800680121F4
:101B7000084321680860204600F0E4FDC5E7000046
:101B800010B586B00446142101A8FEF700FB3249C7
:101B9000206888422DD13148406B012189030843D8
:101BA0002E49486300BF0846C06A012108432B49FB
:101BB000C8620846C06AC007C00F009000BF00BFDF
:101BC0000320400201900220029000200390032095
:101BD00004900420059001A905200007FEF7AEFC43
:101BE000002211461B20FFF7A1F81B20FFF792F8F7
:101BF0002FE01B49206888422BD11848806B0121B7
:101C0000490408431549886300BF0846C06A01219A
:101C100008431249C8620846C06AC007C00F009056
:101C200000BF00BF0C200190022002900020039012
:101C3000032004900420059001A905200007FEF769
:101C40007DFC002211461C20FFF770F81C20FFF7D6
:101C500061F806B010BD00000038014000100240DD
:101C60000044004010B50346986F20287DD100291C
:101C700001D0002A01D1012010BD0124240398685D
:101C8000A04208D11869002805D1C807C00F002854
:101C900001D00120F0E700BF7020C05C012801D115
:101CA0000220E9E701247020C45400BF5965582080
:101CB000C2525A20C2520020186600BF24039868FE
:101CC000A0420AD11869002803D1294C5C20C452D3
:101CD00024E0FF245C20C45220E0986800280AD148
:101CE0001869002803D1FF245C20C45216E07F2429
:101CF0005C20C45212E0012424079868A0420AD153
:101D00001869002803D17F245C20C45206E03F24D8
:101D10005C20C45202E000245C20C45200BF0020BA
:101D2000D8672220986718688068012420431C68BF
:101D3000A060012424039868A04205D118690028F6
:101D400002D10C48186601E00B48186600BF002459
:101D50007020C45400BF18680068FF242134204359
:101D60001C682060002087E7FFE7022084E700006E
:101D7000FF010000112800087D28000810B5044666
:101D80001D4920680968884203D11C48007801F089
:101D9000E7FE012219492046FFF764FF1849206831
:101DA000884223D11748007801F0DAFE16484078BF
:101DB00001281BD100201449886001200873087095
:101DC000104800781149124A127888541048007857
:101DD000401C0F49087008460078FF2806DB0020E9
:101DE000094948700873886003200870012205497A
:101DF0000848FFF737FF10BD8C02002000000020CC
:101E00000044004004000020080000208C00002056
:101E1000050000200C030020FFB583B004460D46EA
:101E20001746606F202875D1002D01D0002F02D1F8
:101E3000012007B0F0BD01210903A068884208D144
:101E40002069002805D1E807C00F002801D0012033
:101E5000EFE700BF7020005D012801D10220E8E714
:101E600001217020015500BF0020E067212060673C
:101E7000FEF770FC019050200753522007530121B8
:101E80000903A068884205D12069002802D10026F4
:101E9000029502E02E460020029021E00698009074
:101EA000002280212046019B00F01EFF002801D067
:101EB0000320BEE7002E09D102980088C005C00D9E
:101EC000216888620298801C029003E030782168C3
:101ED0008862761C5220005B401E81B25220015362
:101EE0005220005B0028D9D10698009000224021A2
:101EF0002046019B00F0F8FE002801D0032098E75F
:101F00002020606700BF00217020015500BF002025
:101F10008FE7FFE702208CE7704700BFFEE701680C
:101F20008969022211404908002902D00021026873
:101F3000916201688969C907C90F01225140514066
:101F4000002904D1016889691143026891617047D1
:101F500070B504460D461646206880691021084079
:101F6000000900283FD018E0681C002815D0FEF7B3
:101F7000F1FB801BA84201D8002D0ED1606C2021FE
:101F8000084360644120015500214220015500BFF3
:101F90004020015500BF012070BD206880692021CC
:101FA000084040090028DFD010202168C8612020A7
:101FB0002168C8612046FFF7B2FF206840680B49DE
:101FC000084021684860606C042108436064202157
:101FD0004120015500214220015500BF40200155FC
:101FE00000BF0120D8E70020D6E7000000E800FE8F
:101FF000F0B504686568059C640D0126B60234409E
:10200000084E26432C46B4438D05AD0D1604FF271C
:102010003F043E4035431D43059E35432C43056830
:102020006C60F0BDFF63FF03F8B504460E4617462B
:102030001D4619E0681C002816D0FEF78BFB069998
:10204000401AA84201D8002D0ED1606C202108430F
:1020500060644120015500214220015500BF40200D
:10206000015500BF0120F8BD206880693040B042B2
:1020700001D1012000E00020B842DBD00020F2E7CF
:1020800070B504460D46164646E0324629462046BF
:10209000FFF75EFF002801D0012070BD2068806935
:1020A000202108404009002822D0206880690421AE
:1020B00008408008002804D0208D002801D000208E
:1020C000EBE720202168C861206840681749084074
:1020D00021684860002060642021412001550021D2
:1020E0004220015500BF4020015500BF0120D4E728
:1020F000FEF730FB801BA84201D8002D0CD1606C8C
:102100002021084360644120015500BF0021402088
:10211000015500BF0120C0E7206880690421084004
:1021200080080028B1D00020B7E7000000E800FEDA
:1021300070B504460D4616461EE032462946204636
:10214000FFF706FF002801D0012070BDFEF702FB5B
:10215000801BA84201D8002D0ED1606C20210843BD
:1021600060644120015500214220015500BF4020FC
:10217000015500BF0120E8E7206880692021084060
:1021800040090028D9D00020DFE770B504460D468D
:10219000164621E0324629462046FFF7D9FE0028A0
:1021A00001D0012070BD681C002815D0FEF7D2FABE
:1021B000801BA84201D8002D0ED1606C202108435D
:1021C00060644120015500214220015500BF40209C
:1021D000015500BF0120E5E7206880690221084021
:1021E00040080028D6D00020DCE7000000B587B00A
:1021F000142102A8FDF7CBFF00BF3448C06A80213C
:1022000008433249C8620846C06A802108400190EC
:1022100000BF00BF00BF2D48C06A012108432B4901
:10222000C8620846C06AC007C00F019000BF00BF67
:1022300000BF0846C06A022108432449C862084614
:10224000C06A02210840019000BF00BF00BF1F48C4
:10225000C06A082108431D49C8620846C06A0821AF
:102260000840019000BF00BF012209021848FEF794
:102270006BFA0022FF21013105200007FEF764FA06
:102280000120C002029001200390002004900590DC
:1022900002A90F48FEF752F9FF20013002900120F9
:1022A000039000200490059002A905200007FEF786
:1022B00045F904200290002003900120049002A917
:1022C0000448FEF73BF907B000BD000000100240D3
:1022D00000040050000C005010B51348134908606A
:1022E000134848600021114881600121C16000212C
:1022F000016141618161C1610162FEF7A1FA0028BB
:1023000001D0FEF7D3F800210848FEF729FA00288B
:1023100001D0FEF7CBF800210448FEF758FA002858
:1023200001D0FEF7C3F810BD00540040400000206B
:10233000FBA7A03010B50E480E490860E12040020E
:10234000486000210B488160C16001610C2141613E
:1023500000218161C161016200200649486208468E
:10236000FFF7CEFB002801D0FEF7A0F810BD00005B
:10237000003801408C02002010B50E480E4908605C
:102380004B20C001486000210B488160C1600161A1
:102390000C21416100218161C16101620020064977
:1023A00048620846FFF7ACFB002801D0FEF77EF834
:1023B00010BD0000004400400C03002070470000E6
:1023C00010B5002819DA1A4A03071B0F083B9B08AF
:1023D0009B00D2588307DC0EFF23A3409A438B0750
:1023E0001B0E8407E40EA3401A43114B0407240F6D
:1023F000083CA408A4001A5118E00E4A03231B024B
:10240000D21883089B00D2588307DC0EFF23A34019
:102410009A438B071B0E8407E40EA3401A43054B17
:10242000032424021B198408A4001A5110BD0000C3
:102430001CED00E000E100E070470000F0B585B061
:1024400004460D461646002003900290FF212046C8
:10245000FEF70CF8A178884206D1FF21E01CFEF7B8
:1024600005F86179884202D0012005B0F0BD2078DE
:1024700000026178084303900398FDF767FF104955
:102480000090FDF725FF0F490190FDF7E4FE074698
:102490000D49FDF787FE2860E078000221790843A6
:1024A00002900298FDF752FF05490190FDF710FFD9
:1024B00007460649FDF7CFFE30600020D5E7000053
:1024C00000FF7F4700002F43000034C20000C842D5
:1024D00010B5024800F022F810BD000020220000D4
:1024E00038B504460720400300F018F804480623D6
:1024F0002246892100900348FEF70CFA38BD0000FF
:10250000FFFF00004000002010B5034800F006F86F
:102510001420FDF7FDFF10BDA23000001CB50446DD
:1025200021126846017144710448022301AA8821DE
:1025300000900348FEF7A4FA1CBD0000FFFF000056
:1025400040000020704710B5FEF788FB10BD00006A
:1025500000B59BB034210EA8FDF719FE142109A87F
:10256000FDF715FE202101A8FDF711FE1E480068A9
:102570000321C90288430121C90240181A49086091
:1025800001200E9000040F9002201790C1031891B3
:1025900003218904199181051A910EA8FEF78CFE7A
:1025A000002801D0FDF782FF0F20099003200A9038
:1025B00000200B900C900D90012109A8FEF7E6FC7D
:1025C000002801D0FDF772FF0B200190002003903E
:1025D0000490069001A8FEF7B3FB002801D0FDF798
:1025E00065FF1BB000BD000000700040154800688A
:1025F000FF2101310843134908600846C0681249A9
:1026000008401049C86008460068104908400D4954
:1026100008600846806840084000886008460068F6
:10262000012189048843074908600846C068FD21E4
:10263000090488430349C86000200861C8030449AD
:1026400088607047001002400C40FF88F6FFF6FEDD
:1026500000ED00E0818CC907C90F002908D001688E
:102660004968012252049143826A11430268516011
:102670000222416A1140022907D101684968D20348
:102680009143C26A1143026851600422416A1140B9
:10269000042907D10168496812049143026B114370
:1026A000026851600822416A1140082907D1016877
:1026B000496812039143426B114302685160102232
:1026C000416A1140102907D10168896812029143BB
:1026D000826B1143026891602022416A11402029D7
:1026E00007D10168896812029143C26B11430268E5
:1026F00091604022416A1140402915D10168496822
:1027000092039143026C1143026851600122120549
:10271000016C914208D10168496803225205914336
:10272000426C1143026851608022416A1140802945
:1027300007D10168496812039143826C1143026812
:102740005160704738B504460020E067FEF702F894
:102750000546206800680821084008280BD1144865
:102760002B46002289040090204600F0BDFA002884
:1027700001D0032038BD20680068042108400428E7
:102780000BD10B482B46002209050090204600F093
:10279000ABFA002801D00320ECE720206067A06797
:1027A00000BF00217020015500BF0020E2E70000BB
:1027B000FFFFFF0170B50546AC6A00215A200153A6
:1027C000522001532046FFF7B4F870BD0168096834
:1027D000FF2221329143026811600168896849082B
:1027E00049000268916020218167002101667047DD
:1027F00010B50446206800684021884321680860BD
:1028000020206067002060662046FFF785FB10BD32
:10281000F8B504465C20075BA06F222827D120680A
:10282000406A86B2656D304638402880606D801CF5
:1028300060655A20005B401E81B25A200153005B44
:1028400000281AD120680068FF21213188432168BF
:102850000860206880684008400021688860202067
:10286000A067002020662046FFF788FA05E0206870
:1028700080690821084321688861F8BD70B5044665
:102880005C20065BA06F222827D12068406A85B2B1
:10289000F0B22840616D0870606D401C60655A2080
:1028A000005B401E81B25A200153005B00281AD100
:1028B00020680068FF212131884321680860206872
:1028C000806840084000216888602020A0670020C0
:1028D00020662046FFF752FA05E02068806908214B
:1028E00008432168886170BDF0B587B004461020A8
:1028F00004900025002003900026EE4920688842BD
:1029000000D100E000BF2169A06808436169084365
:10291000E1690843074620680068E74908403843F2
:102920002168086020684068032109038843E16842
:10293000084321684860A769DE492068884201D0C1
:10294000206A0743206880680B21090288433843C6
:102950002168886000BFD949206888421CD1D848C6
:10296000C0688007800F002806D001280AD00228FE
:1029700005D003280CD108E0012004900BE00220D0
:10298000049008E00420049005E00820049002E090
:102990001020049000BF54E0CA49206888421CD12E
:1029A000C748C0680C210840002806D004280AD077
:1029B000082805D00C280CD108E0002004900BE07A
:1029C0000220049008E00420049005E00820049010
:1029D00002E01020049000BF33E0BB492068884229
:1029E00002D1002004902CE0B8492068884202D12E
:1029F0000020049025E0AF49206888421FD1B048EC
:102A0000C068032189020840002808D001218902FA
:102A1000401A0AD0401A05D0401A0CD108E0002014
:102A200004900BE00220049008E00420049005E0EC
:102A30000820049002E01020049000BF01E0102064
:102A4000049000BF9B492068884256D1049804280E
:102A50001AD004DC002807D002281CD108E008287E
:102A600016D0102817D117E0FEF79AFB064616E09D
:102A7000934840380068102108400009002801D020
:102A8000934E00E0934E0AE0FEF7AEFB064606E0EA
:102A90000126F60303E000BF0120039000BF00BF42
:102AA000002E0AD0606841004018B04203D8606828
:102AB0000003B04202D201200390F4E0606802906B
:102AC0003046FF21013100F079F962685208002395
:102AD0008018594101910090029AFDF721FB0546AB
:102AE00003200002854205D37B48854202D8206836
:102AF000C560D8E001200390D5E00121C903E06959
:102B000088426FD1049804283CD006DC002809D004
:102B1000012813D002284AD11CE008283ED01028F2
:102B200045D145E0FEF73CFB40006168490840188C
:102B300002906168FDF7DEFA85B23CE0FEF742FBE9
:102B4000400061684908401802906168FDF7D2FAB8
:102B500085B230E05A48403800681021084000092A
:102B6000002807D061684A085C4BD018FDF7C2FA0C
:102B700085B206E061684A08594BD018FDF7BAFAE9
:102B800085B218E0FEF730FB400061684908401844
:102B900002906168FDF7AEFA85B20CE061684A0800
:102BA00001231B04D018FDF7A5FA85B203E000BF8E
:102BB0000120039000BF00BF102D0FD3494885426C
:102BC0000CD848480F38284005902807400F059931
:102BD0000843059005982168C86064E001200390CF
:102BE00061E0FFE7049804283AD006DC002809D009
:102BF000012812D0022847D11AE008283BD010281B
:102C000042D142E0FEF7CCFA6168490840180290D0
:102C10006168FDF76FFA85B23AE0FEF7D3FA6168B2
:102C20004908401802906168FDF764FA85B22FE008
:102C3000234840380068102108400009002807D0C8
:102C400061684A08224BD018FDF754FA85B206E0B5
:102C500061684A081F4BD018FDF74CFA85B217E09F
:102C6000FEF7C2FA61684908401802906168FDF7F2
:102C700041FA85B20CE061684A080123DB03D018F1
:102C8000FDF738FA85B203E000BF0120039000BFD2
:102C900000BF102D05D31348854202D82068C560B7
:102CA00001E001200390002020666066039807B0D1
:102CB000F0BD000000480040F369FFEF003801401C
:102CC0004010024000440040004C004000500040D2
:102CD00000093D000024F400FFFF0F0000127A00FD
:102CE0000048E801FFFF0000FFB581B004460D4633
:102CF00017460A9E22E0701C00281FD0FDF72AFD0F
:102D00000499401AB04201D8002E17D120680068FB
:102D1000FF21A1318843216808602068806840084D
:102D200040002168886020206067A06700BF002104
:102D30007020015500BF032005B0F0BD2068C069B8
:102D40002840A84201D1012000E00020B842D2D0A2
:102D50000020F1E710B50248FEF7ECFD10BD0000C1
:102D60008C02002010B50248FEF7E4FD10BD000003
:102D70000C0300200FB410B503A9044B044A0298B9
:102D800000F052F810BC08BC04B0184735350008F4
:102D9000180000200FB410B504A9074B02AA03982D
:102DA00000F042F8044602A9002000F0E5F82046B1
:102DB00010BC08BC04B01847792F0008F8B582B2DF
:102DC0008BB2040C0D0C10465843002126465E437E
:102DD000370C36048019794116466E43370C360499
:102DE0008019794126466E438919F8BD30B474467E
:102DF000641E2578641CAB4204D3635D5B00E3185A
:102E000030BC18471D46F8E702E008C8121F08C189
:102E1000002AFAD170477047002001E001C1121F5B
:102E2000002AFBD170470000FFB58DB00446002595
:102E300006E025280AD0109A0F999047641C6D1C53
:102E400020780028F5D1284611B0F0BD00270121D7
:102E5000484A009700E00743641C23780846203B5B
:102E600098401042F7D120782E2817D1042007432C
:102E70006078641C2A280CD10E98641C02C800914A
:102E80000E900BE000990A22514330394018641C1F
:102E900000902078014630390929F3D9207800289C
:102EA000D1D0642808D0692806D075281ED0109A81
:102EB0000F9990476D1C5BE00A200E99019001C9A3
:102EC0000E91002802DA40422D2102E0390504D596
:102ED0002B216A461172012103E0F90704D0202159
:102EE000F7E70BAE0B910DE00021FAE70A200E99EF
:102EF000019001C90E91F7E70199FDF7FBF8303118
:102F0000761E31700028F7D103A8801B2030019075
:102F1000780701D5009801E00120009001998842CE
:102F200001DD401A00E000200027009006E002A822
:102F3000109AC05D0F9990476D1C7F1C0B988742BB
:102F4000F5DB04E0109A30200F9990476D1C009932
:102F5000481E00900029F5DC05E03078109A761CB8
:102F60000F9990476D1C0199481E01900029F4DCCF
:102F7000641C65E7092801000A68531C0B60107087
:102F80007047704701460020087800024A781043D5
:102F900000028A7810430002CA781043704700008C
:102FA000F0B585B004463149E01C085C02900298F7
:102FB0000300FFF71BFF0F090C0F121D21255647B9
:102FC00056565656564A560000F0F0FA4AE000F0BF
:102FD0001FFD47E000F0E2FA44E02449A01D085C30
:102FE0002349087000220321084600F09DFE39E0C5
:102FF00001202049087035E001201F49087031E0A8
:103000001A49201D085C07020A46611D515C0F43E6
:10301000002514E0A01D4019801C1449085C06021C
:10302000A01D4019C01C085C801986B20919891DB1
:10303000481900F023F80390301D281885B2BD42CE
:10304000E8DB0FE0FFF79DFF0CE00849A01D085CDE
:103050000190E01D085C00900099019800F0D2FDFD
:1030600000E000BF00BF05B0F0BD00008C030020F1
:103070003B000020390000203A000020FEB5044645
:1030800026786778A0780502E078401985B2304646
:1030900000F06CFA01900198400007494018407810
:1030A000B84201D00020FEBD2A46211D304600F066
:1030B000CAF800900098F6E7A93D0008F8B5044664
:1030C0000D462946204600F04DFC074639461020A3
:1030D00000F006FC0646012E00D1F8BD0020FCE7FA
:1030E000F8B504460D462946204600F03BFC07464D
:1030F0003946682000F0F4FB0646012E00D1F8BDE9
:103100000020FCE7F8B504460D462946204600F0AD
:1031100023FC07463946652000F082FB0646012E57
:1031200000D1F8BD0020FCE7F8B504460D4629465D
:10313000204600F011FC07463946662000F070FB7F
:103140000646012E00D1F8BD0020FCE7F8B5044684
:103150000D462946204600F0FFFB0746394667200A
:1031600000F05EFB0646012E00D1F8BD0020FCE712
:10317000F8B504460D462946204600F0F3FB074605
:103180003946692000F0ACFB0646012E00D1F8BD9F
:103190000020FCE7F8B504460D462946204600F01D
:1031A000E1FB074639466A2000F09AFB0646012EED
:1031B00000D1F8BD0020FCE7F8B506460F463946B9
:1031C000304600F0CCFB05462B00FFF70FFE0A0649
:1031D0000708090A0B0C0D0E0F1009E008E007E0C4
:1031E00006E005E004E003E002E001E000E000BFEB
:1031F00000BF29466B2000F047FB0446012C00D19C
:10320000F8BD0020FCE7F8B506460F4639463046C3
:1032100000F0A5FB05462B00FFF7E8FD05040506B9
:103220000708090004E003E002E001E000E000BF5D
:1032300000BF29466C2000F027FB0446012C00D17A
:10324000F8BD0020FCE7F8B505460E4617462846AF
:10325000152D5DD00BDC801F0300FFF7C7FD0D1D92
:103260002398292F353B419898474D53980068285B
:103270006CD008DC162851D0652855D0662859D066
:1032800067286FD15CE0692866D06A286DD06B280A
:1032900071D06C287BD174E03946304600F00BF9D0
:1032A000044675E03946304600F087F804466FE082
:1032B0003946304600F023F9044669E03946304685
:1032C00000F09FF8044663E03946304600F0BDF850
:1032D00004465DE03946304600F081F8044657E088
:1032E0003946304600F09FF8044651E039463046F2
:1032F000FFF7E4FE04464BE03946304600F0C9F8DB
:10330000044645E03946304600F045F804463FE0C3
:103310003946304600F0ABF8044639E039463046CD
:1033200000F0DBF8044633E039463046FFF7EAFEAA
:1033300004462DE039463046FFF7F6FE044627E006
:1033400039463046FFF702FF044621E03946304651
:10335000FFF7C6FE04461BE039463046FFF708FF7C
:10336000044615E013E000E005E039463046FFF77B
:1033700011FF04460CE039463046FFF71DFF0446B6
:1033800006E039463046FFF73EFF044600E000BF46
:1033900000BF2046F8BDF8B504460D462946204634
:1033A00000F0E0FA07463946122000F099FA064686
:1033B000012E00D1F8BD0020FCE7F8B504460D460B
:1033C0002946204600F0CEFA07463946072000F08D
:1033D00087FA0646012E00D1F8BD0020FCE7F8B5BB
:1033E00004460D462946204600F0BCFA07463946F9
:1033F0000C2000F075FA0646012E00D1F8BD002021
:10340000FCE7F8B504460D462946204600F0AAFA26
:10341000074639460A2000F063FA0646012E00D11D
:10342000F8BD0020FCE7F8B504460D4629462046C5
:1034300000F098FA074639460D2000F051FA06468A
:10344000012E00D1F8BD0020FCE7F8B504460D467A
:103450002946204600F086FA074639460B2000F040
:103460003FFA0646012E00D1F8BD0020FCE7F8B572
:1034700004460D462946204600F06EFA07463946B6
:10348000152000F0CDF90646012E00D1F8BD002030
:10349000FCE7F8B504460D462946204600F062FADE
:1034A00007463946112000F01BFA0646012E00D1CE
:1034B000F8BD0020FCE7F8B504460D462946204635
:1034C00000F050FA07463946062000F009FA064691
:1034D000012E00D1F8BD0020FCE7F8B504460D46EA
:1034E0002946204600F03EFA07463946162000F0ED
:1034F000F7F90646012E00D1F8BD0020FCE7F8B52B
:1035000006460F463946304600F029FA0546002D9A
:1035100002D0012D02D100E001E000E000BF00BFB9
:103520002946092000F0B0F90446012C00D1F8BD6D
:103530000020FCE700BF054AD26940231A40002A58
:10354000F9D0C2B2014B9A627047000000380140C6
:1035500030B502460020002305E01578521C2C18D7
:10356000E0B25C1CA3B28B42F7DB30BD70B5054600
:1035700000F012F80646002407E060000549085CE8
:10358000A84200D103E0601CC4B2B442F5DB00BF26
:10359000204670BDA93D00081D20704710B50024CD
:1035A00022460321022000F0BFFB10BD10B500240D
:1035B0000B480078002808D10021204600F0AAFA24
:1035C000C4B201200649087004E00121204600F041
:1035D000A1FAC4B222460321002000F0A5FB10BDD1
:1035E0003C00002092B00020109011900F900E909F
:1035F000342101A8FCF7CBFD0024FDF73BFBFEF7CF
:10360000A7FFFEF7F3FDFEF767FEFEF793FEFEF75A
:10361000B3FE012256495748FEF724FB01225449C4
:103620005548FEF71FFBFEF76FFFFEF751FF00281E
:1036300003D152A0FFF79EFB02E055A0FFF79AFBD3
:103640007D200001FCF764FF00F0C6FA7D20000138
:10365000FCF75EFF002000F093F987E000F0D8FA55
:1036600000F088F9002806D001280DD0022815D0D6
:10367000032826D11BE0FA2C05D300240121C9021E
:103680004848FDF757F81DE04748844205D3002419
:103690000121C9024348FDF74DF813E0FA2C05D388
:1036A00000240122D1023F48FDF74EF80AE0FA2C2F
:1036B00006D3002400220121C9023A48FDF744F84C
:1036C00000E000BF00BF10A8FEF70AFF00282AD1C3
:1036D0000EAA0FA910A8FEF7B1FE00281BD10E9864
:1036E000FCF73BFE05460F98FCF737FE06462B46D7
:1036F00032462EA101A8FFF74DFB0E98FCF72DFED8
:1037000005460F98FCF729FE06462A4631462FA0AB
:10371000FFF730FB0EE036A101A8FFF73BFB34A01A
:10372000FFF728FB06E036A101A8FFF733FB34A022
:10373000FFF720FB39490F98FCF78DFD0646FCF793
:103740000CFE05462946012000F0CAF87D20C00085
:10375000FCF7DEFE0E98FCF700FE05462946022027
:1037600000F0BEF87D20C000FCF7D2FE76E7000036
:10377000000000208C0200200C0300200D0A73685A
:1037800074333020696E6974206F6B0D0A0000007D
:103790000D0A736874333020696E6974206661693C
:1037A0006C0D0A0000040050DC05000074656D70AB
:1037B00065726174757265203D2025642C206875E2
:1037C0006D6964697479203D202564000D0A746573
:1037D0006D7065726174757265203D2025642C20C2
:1037E00068756D6964697479203D2025640D0A004F
:1037F00063726320636865636B206661696C2E0089
:103800007265616420646174612066726F6D2073FB
:1038100068743330206661696C2E0000000020411E
:1038200070B504460D46002616480078012800D1E0
:1038300070BD2146304600F06DF906460121304644
:1038400000F068F906460021304600F063F90646AC
:103850000121304600F05EF90646002D05D1002119
:10386000304600F057F9064604E00121304600F0EA
:1038700051F9064632460321072000F055FA01208F
:10388000D6E700003800002070B504460E4600253B
:1038900012480078012800D170BD2146284600F06A
:1038A00039F905460421284600F034F9054600217F
:1038B000284600F02FF905460121284600F02AF994
:1038C00005463146284600F025F905462A460321DB
:1038D000072000F029FA0120DEE700003800002070
:1038E00070B505460C4600261A480078012800D11C
:1038F00070BD2946304600F00DF9064602213046DB
:1039000000F008F906460021304600F003F90646AB
:103910000421304600F0FEF80646210E304600F045
:10392000F9F806462002010E304600F0F3F806468C
:103930002004010E304600F0EDF80646E1B23046B4
:1039400000F0E8F8064632460321072000F0ECF9C3
:103950000120CDE73800002002461078704702466B
:103960001078704710B503460C461846FFF70AFB5F
:1039700010BD000001480078704700003B000020A7
:1039800070B50446002500200649087021462846E7
:1039900000F0C0F8C5B22A460321052000F0C4F9A2
:1039A00070BD00003A000020F0B505460E461346F3
:1039B0002A463446002D01D0002E01D10020F0BD52
:1039C000A24202D9E018904208D2002103E0605CD4
:1039D0005054481C81B29942F9DB09E0194605E0D0
:1039E000481E205C4F1ED055481E81B20029F7DCCE
:1039F0002846E4E701460022002900D17047002252
:103A000000E0521C0B78491C002BFAD11046F5E758
:103A10003EB50024002000900190029025A0FFF701
:103A2000E9FF85B22A4623A1204600F061F8C4B21E
:103A300022A0FFF7DFFF85B22A4620A1204600F032
:103A400057F8C4B222A0FFF7D5FF85B22A4620A1BD
:103A5000204600F04DF8C4B21FA0FFF7CBFF85B29F
:103A60002A461DA1204600F043F8C4B21CA0FFF76F
:103A7000C1FF85B22A461AA1204600F039F8C4B227
:103A800019A0FFF7B7FF85B22A4617A1204600F01C
:103A90002FF8C4B215A0FFF7ADFF85B22A4613A1D7
:103AA000204600F025F8C4B222460321012000F090
:103AB0003BF93EBD7B2270223A22000072696C7194
:103AC000677573637078746E6C7330690000000002
:103AD000222C2276223A2200312E302E3000000095
:103AE000222C226D223A0000320000007D000000EE
:103AF000F8B504460E461546054807192A463146CC
:103B00003846FFF751FF601984B22046F8BD000027
:103B1000C8030020024B1A181170431C98B270475A
:103B2000C80300200B4909680B4A126891420FD064
:103B300008490A6809498A4202D31739054A1160BF
:103B400004490968087803490968491C014A116059
:103B5000704700003400002030000020C203002025
:103B600012490968124A1268891A01291CD01049A1
:103B700009680E4A1268914206D90D4909680B4A34
:103B80001268891A17290FD209490A6809498A4215
:103B900002D31739064A11600549096808700449BB
:103BA0000968491C024A1160704700003400002077
:103BB00030000020C203002010B504460448047001
:103BC0007D23DB00012201460248FEF725F910BDE6
:103BD0002E0000200C030020054806490860064915
:103BE0000860002005490870FF20054908707047EB
:103BF000AB030020300000203400002038000020FB
:103C00003B000020002802D1002900D000BF7047EF
:103C100070B50024002509E0FFF784FF36490A88C3
:103C20000988491C344B198034498854324800882B
:103C30001F2803D200F09AF80028EDDC2E480088F7
:103C4000072800DA70BD3FE02C48005D552802D0FF
:103C5000601C84B238E02949601C085CAA2802D0A4
:103C6000601C84B230E02549A01C085C002802D00A
:103C7000A01C84B228E02149201D085C0502601DBB
:103C8000085CC01D401985B2262D02D9E01C84B203
:103C90001AE019480088001BA84200DA19E06A1EE1
:103CA00091B2164A1019FFF753FC6119491E134AC5
:103CB000515C884202D0E01C84B205E02046FFF748
:103CC0006FF9601984B200BF0B480088001B0728F9
:103CD000BADA00BF08480088001B07490880084678
:103CE0000088002806DD05480119034802880348BA
:103CF000FFF75AFE00BFA5E72C0000208C03002030
:103D000070B504460D46002C01D0002D00D170BDC9
:103D100003E02078FFF750FF641C2846691E8DB22F
:103D20000028F6D100BFF2E7F8B505460E46144666
:103D3000002755200C490870AA2048700846867054
:103D4000C570201208714C71E01D84B2601E81B2F2
:103D50000548FFF7FDFB0746601E03490F54214647
:103D60000148FFF7CDFFF8BDC203002004480068FA
:103D700004490968884201D0012070470020FCE70F
:103D8000300000203400002000000000000000008F
:103D900001020304060708090000000001020304F1
:103DA000030406080C101820300102020203040468
:103DB00002050106020702080109040A020B020CAF
:103DC000020D020E040F0410021102120215011658
:103DD00002650166016701680269026A026B046C90
:103DE000046D0400043E00080000002040000000B4
:103DF000082E0008443E000840000020C0070000D4
:103E0000182E000800000000000000000001000063
:103E10000A00000000000000000000000000000098
:103E2000000000000400000001000000000020006D
:103E30000000000000000000000000000000000082
:043E4000000000007E
:04000005080000C12E
:00000001FF
